010101080097810100160314000008300000000584028216VEB20170914J308210293        INVERSORA VELCAR C.A.                                              
0201080542230100200616V00000000512871400000000006421373SEGURA, SORAYA VENINNA                                                00                       
0201080097810100162953V00000000623275200000000006421373RONDON, DILIO                                                         00                       
0201082463030100125107V00000000647491400000000006421373NAVARRO, JESUS                                                        00                       
0201080596100100079005V00000000659145700000000006421373BENCOMO, DALIA MARIA                                                  00                       
0201080097840100162988V00000000723513100000000006421373VILORIA DE FLORES, JUDITH MAARLENE                                    00                       
0201080542240100200624V00000000759710100000000006421373ARRIECHI, HILDA GISELA                                                00                       
0201080097850100162996V00000000813182800000000006421373PEREZ COLOMBO, HUMBERTO JOSE                                          00                       
0201080097830100163003V00000000813786600000000006421373PORRAS RAMIREZ, ADRIANO ANTONIO                                       00                       
0201080097840100163011V00000000814162700000000006421373JIMENEZ, ELISA ESPERANZA                                              00                       
0201080097860100163038V00000000814260100000000005511084GUERRERO MARTINEZ, TEODOLINDA                                         00                       
0201080097870100163046V00000000814877700000000006421373RODRIGUEZ MAMBEL, GREGORIA CALINA                                     00                       
0201080097880100163054V00000000867678200000000006421373VALERO BERMUDEZ, MIRIAN JOSEFA                                        00                       
0201080542250100200632V00000000925026800000000006421373FERNANDEZ MEJIAS, HONORIO JOSE                                        00                       
0201080097800100165871V00000000936016400000000006421373JIMENEZ, ALIS VICTORIA                                                00                       
0201080097890100163062V00000000938247300000000006421373FERNANDEZ S., ALEIDE J.                                               00                       
0201080542260100200640V00000000940036200000000006421373MEJIAS ALDANA, ANASTACIA                                              00                       
0201080542270100200659V00000000940403100000000006421373FERNADEZ TERAN, MARIA MARQUIRIS                                       00                       
0201080542280100200667V00000000940989200000000006421373GODOY RODRIGUEZ, MARIA ANTONIA                                        00                       
0201080097810100163089V00000000999113200000000008293977HERNANDEZ PACHECO, JOSE A.                                            00                       
0201080097810100163097V00000001013481500000000006421373ECHENIQUE HERRERA, NURIS DEL VALLE                                    00                       
0201080097850100163100V00000001056441300000000006421373BARRIOS GUEVARA, DELIA COROMOTO                                       00                       
0201080097860100163119V00000001062199000000000006421373PEÑA, MARIA DEL VALLE                                                 00                       
0201080097870100163127V00000001070365100000000006421373LUNA JACANAMIJOY, MARIA ELENA                                         00                       
0201080542290100200675V00000001072239700000000006280288BRICEÑO DELGADO, COROMOTO JOSEFINA                                    00                       
0201080542200100200683V00000001072595800000000006421373BOZA TERAN, ZENAIDA MARIA                                             00                       
0201080542210100200691V00000001072945200000000006421373MONTILLA, MILAGROS COROMOTO                                           00                       
0201080097880100163135V00000001081682200000000006421373MORENO QUINTERO, RAFAEEL ISIDRO                                       00                       
0201080097890100163143V00000001118524000000000006421373G. LOZADA, MARINA DEL CARMEN                                          00                       
0201080097800100163151V00000001118537400000000006421373DELGADO, MIREYA DEL CARMEN                                            00                       
0201080542240100200705V00000001139997900000000006421373LA CRUZ MONSALVE, MARIA AGUSTINA                                      00                       
0201080097840100163364V00000001170619500000000009480860JARAMILLO SULBARAN, ILBA ELENA                                        00                       
0201080097810100165898V00000001182235200000000006421373MARTINEZ ZAMBRANO, MELVA YTALINA                                      00                       
0201080097810100163178V00000001220568400000000005966228BORJAS PALMA, JAIRO RAMON                                             00                       
0201080097850100165901V00000001283723900000000013492595LOZANO, DANIEL                                                        00                       
0201080542250100200713V00000001289508500000000006421373TERAN DE ORELLANA, MARIA NICOLASA                                     00                       
0201080097820100163186V00000001307913700000000006421373Q GUEVARA, NORVELYS ESMERALDA                                         00                       
0201080542260100200721V00000001311751900000000006421373LOZANO DE SULBARAN, BENILDE DEL CARMEN                                00                       
0201080097830100163194V00000001368305500000000006421373VILLANUEVA, NEILA MIREYA                                              00                       
0201080596170100034060V00000001368352100000000006421373SALCEDO RIVAS, NORELIS DEL VALLE                                      00                       
0201080542280100200748V00000001420589700000000006421373ARRAIZ LA CRUZ, MARIA MAGDALENA                                       00                       
0201080542290100200756V00000001433313100000000006421373AZUAJE TORRES, YOVANNY GREGORIO                                       00                       
0201080542200100200764V00000001440647500000000006421373PACHECO GODOY, ELICIA DEL CARMEN                                      00                       
0201080542210100200772V00000001446700600000000006421373GARCIA GARCIA, GUSTAVO JOSE                                           00                       
0201082428110100169634V00000001464871700000000006421373ALVAREZ FIGUEROA, MARIA FLORINDA                                      00                       
0201080097870100163208V00000001481427900000000006421373PEREZ LICONES, MIGDALIA DEL VALLE                                     00                       
0201080542210100200780V00000001530962100000000006421373TERAN PEREZ, HONORIA DEL CARMEN                                       00                       
0201080097870100165928V00000001562106300000000006421373TORO, HOMAIRA JOSEFINA                                                00                       
0201080066810100344440V00000001567085400000000006421373RAMIREZ MUCHACHO, YELITZA COROMOTO                                    00                       
0201080169940100221888V00000001613687500000000006421373MIRANDA LINAREES, IVAN JOSE                                           00                       
0201080097880100165936V00000001619026000000000008909656GUEDEZ, YORDIN                                                        00                       
0201082432090100142819V00000001632471100000000006421373GIL, HOLAIDA MINERLYS                                                 00                       
0201080097880100163216V00000001642502000000000017476717ALVAREZ L., LYA A.                                                    00                       
0201080097890100163224V00000001705297300000000006421373FALCON MATOS, JOSE RAFAEL                                             00                       
0201080542220100200799V00000001725918900000000011008095CASERES, WILGER JESUS                                                 00                       
0201080097800100163232V00000001727312000000000006421373FLORES VILORIA, YOSKARY URIMARY                                       00                       
0201080596120100111294V00000001737602400000000006421373SALCEDO RIVAS, YURAINI COROMOTO                                       00                       
0201080596120100037469V00000001754900500000000006421373PEREZ DURAN, KENDRY SAMUEL                                            00                       
0201080097810100163240V00000001776652700000000005966228ROJAS QUINTERO, LINDOLFO RAMON                                        00                       
0201080097860100163380V00000001782814900000000013092588PEÑA S., ANDREA J.                                                    00                       
0201080542260100200802V00000001788104600000000006421373RIVERO AREVALO, OSMERY ALEJANDRA                                      00                       
0201080542270100200810V00000001788116700000000006421373ARAUJO MUJICA, HECTOR JOSE                                            00                       
0201080097810100163259V00000001802991700000000006421373HERNANDEZ DE COCUY, ROSALBA                                           00                       
0201080542280100200829V00000001810064400000000006421373GIL GUEDEZ, YURAIMA YULIBETH                                          00                       
0201080596110100056587V00000001855854800000000006421373VILLAMIZAR, WENDY NEXIRE                                              00                       
0201080097820100163267V00000001919228800000000006421373FRANCO FLORES, ANA ISABEL                                             00                       
0201080097861500012841V00000001924917000000000010358320TIRADO, PHYTHYNIA                                                     00                       
0201080097870100163399V00000001951736100000000006421373ESCALONA C., CESAR AL                                                 00                       
0201080097890100165944V00000001951764700000000015019000PRADO, DANIEL                                                         00                       
0201080097830100163275V00000001978450000000000006421373RODRIGUEZ APONTE, ELVIS JOSE                                          00                       
0201080097800100165952V00000001980544400000000006421373ODREMAN, KARINA                                                       00                       
0201080123190100214295V00000002011979900000000006421410RUIDO, EUDY                                                           00                       
0201080097840100163283V00000002024003900000000006421373CAMACHO CORDERO, EDUARD JOEL                                          00                       
0201080542290100200837V00000002054495800000000006421373PALMA GUDIÑO, CARLOS ALBERTO                                          00                       
0201080097890100163305V00000002148707200000000006421373MEJIA MOLINA, SALVADOR                                                00                       
0201080542200100200845V00000002209248000000000006421373FERNANDEZ CONTRERAS, JOSE LUIS                                        00                       
0201080097800100163313V00000002211200400000000006421373PAEZ ALVAREZ, CLEDYS NACARI                                           00                       
0201080542210100200853V00000002224616100000000006421373MONTAÑA GODOY, ANA ISABEL                                             00                       
0201080067670100315012V00000002300154200000000006421373UZCATEGUI, MARY CAROLINA                                              00                       
0201080097810100163321V00000002369902200000000006421373E. VIZCAYA, YELITZA DEL CARMEN                                        00                       
0201080097820100163348V00000002402119900000000005511084FERNANDEZ URBINA, OMAR ENRIQUE                                        00                       
0201080542291500004146V00000002453864900000000006421373MARQUEZ BELLO, YOHANDRI ENRRIQUE                                      00                       
0201080542230100200888V00000002515985100000000011008095VILLA DAVID, MARIA PASTORA                                            00                       
0201080097830100163356V00000002565226300000000006421373FERNANDEZ URBINA, DENNIS JOSE                                         00                       
